{
  "contractName": "DonationMatching",
  "abi": [
    {
      "constant": true,
      "inputs": [],
      "name": "expiration",
      "outputs": [
        {
          "name": "",
          "type": "uint256"
        }
      ],
      "payable": false,
      "stateMutability": "view",
      "type": "function"
    },
    {
      "constant": true,
      "inputs": [
        {
          "name": "",
          "type": "uint256"
        }
      ],
      "name": "tokens",
      "outputs": [
        {
          "name": "",
          "type": "address"
        }
      ],
      "payable": false,
      "stateMutability": "view",
      "type": "function"
    },
    {
      "constant": true,
      "inputs": [],
      "name": "recipient",
      "outputs": [
        {
          "name": "",
          "type": "address"
        }
      ],
      "payable": false,
      "stateMutability": "view",
      "type": "function"
    },
    {
      "constant": true,
      "inputs": [],
      "name": "sponsor",
      "outputs": [
        {
          "name": "",
          "type": "address"
        }
      ],
      "payable": false,
      "stateMutability": "view",
      "type": "function"
    },
    {
      "constant": true,
      "inputs": [
        {
          "name": "",
          "type": "address"
        }
      ],
      "name": "grantsByToken",
      "outputs": [
        {
          "name": "amount",
          "type": "uint256"
        },
        {
          "name": "refundDue",
          "type": "uint256"
        },
        {
          "name": "tallied",
          "type": "bool"
        }
      ],
      "payable": false,
      "stateMutability": "view",
      "type": "function"
    },
    {
      "inputs": [
        {
          "name": "_recipient",
          "type": "address"
        },
        {
          "name": "_expiration",
          "type": "uint256"
        }
      ],
      "payable": false,
      "stateMutability": "nonpayable",
      "type": "constructor"
    },
    {
      "payable": true,
      "stateMutability": "payable",
      "type": "fallback"
    },
    {
      "constant": false,
      "inputs": [],
      "name": "sponsorEther",
      "outputs": [],
      "payable": true,
      "stateMutability": "payable",
      "type": "function"
    },
    {
      "constant": false,
      "inputs": [
        {
          "name": "token",
          "type": "address"
        },
        {
          "name": "amount",
          "type": "uint256"
        }
      ],
      "name": "sponsorTokens",
      "outputs": [],
      "payable": false,
      "stateMutability": "nonpayable",
      "type": "function"
    },
    {
      "constant": false,
      "inputs": [
        {
          "name": "token",
          "type": "address"
        }
      ],
      "name": "disburseDonation",
      "outputs": [],
      "payable": false,
      "stateMutability": "nonpayable",
      "type": "function"
    },
    {
      "constant": false,
      "inputs": [
        {
          "name": "token",
          "type": "address"
        }
      ],
      "name": "refundSponsor",
      "outputs": [],
      "payable": false,
      "stateMutability": "nonpayable",
      "type": "function"
    },
    {
      "constant": true,
      "inputs": [],
      "name": "hasExpired",
      "outputs": [
        {
          "name": "",
          "type": "bool"
        }
      ],
      "payable": false,
      "stateMutability": "view",
      "type": "function"
    }
  ],
  "bytecode": "0x608060405234801561001057600080fd5b50604051604080610e4e8339810180604052604081101561003057600080fd5b81019080805190602001909291908051906020019092919050505042811161005757600080fd5b6301e133804201811061006957600080fd5b336000806101000a81548173ffffffffffffffffffffffffffffffffffffffff021916908373ffffffffffffffffffffffffffffffffffffffff16021790555081600160006101000a81548173ffffffffffffffffffffffffffffffffffffffff021916908373ffffffffffffffffffffffffffffffffffffffff160217905550806002819055505050610d4c806101026000396000f3fe6080604052600436106100915760003560e01c806390e64d131161005957806390e64d1314610201578063ae23e49e14610230578063c39c4c681461028b578063c7c86cff146102dc578063ddd7092a1461035357610091565b806330c15fc6146100a35780634665096d146100ad5780634f64b2be146100d857806366d003ac1461015357806377c93662146101aa575b600080369050146100a157600080fd5b005b6100ab6103a4565b005b3480156100b957600080fd5b506100c26103b1565b6040518082815260200191505060405180910390f35b3480156100e457600080fd5b50610111600480360360208110156100fb57600080fd5b81019080803590602001909291905050506103b7565b604051808273ffffffffffffffffffffffffffffffffffffffff1673ffffffffffffffffffffffffffffffffffffffff16815260200191505060405180910390f35b34801561015f57600080fd5b506101686103f3565b604051808273ffffffffffffffffffffffffffffffffffffffff1673ffffffffffffffffffffffffffffffffffffffff16815260200191505060405180910390f35b3480156101b657600080fd5b506101bf610419565b604051808273ffffffffffffffffffffffffffffffffffffffff1673ffffffffffffffffffffffffffffffffffffffff16815260200191505060405180910390f35b34801561020d57600080fd5b5061021661043e565b604051808215151515815260200191505060405180910390f35b34801561023c57600080fd5b506102896004803603604081101561025357600080fd5b81019080803573ffffffffffffffffffffffffffffffffffffffff1690602001909291908035906020019092919050505061044b565b005b34801561029757600080fd5b506102da600480360360208110156102ae57600080fd5b81019080803573ffffffffffffffffffffffffffffffffffffffff16906020019092919050505061058a565b005b3480156102e857600080fd5b5061032b600480360360208110156102ff57600080fd5b81019080803573ffffffffffffffffffffffffffffffffffffffff169060200190929190505050610736565b6040518084815260200183815260200182151515158152602001935050505060405180910390f35b34801561035f57600080fd5b506103a26004803603602081101561037657600080fd5b81019080803573ffffffffffffffffffffffffffffffffffffffff16906020019092919050505061076d565b005b6103af6000346109e3565b565b60025481565b600381815481106103c457fe5b906000526020600020016000915054906101000a900473ffffffffffffffffffffffffffffffffffffffff1681565b600160009054906101000a900473ffffffffffffffffffffffffffffffffffffffff1681565b6000809054906101000a900473ffffffffffffffffffffffffffffffffffffffff1681565b6000600254421015905090565b600073ffffffffffffffffffffffffffffffffffffffff168273ffffffffffffffffffffffffffffffffffffffff16141561048557600080fd5b61048f82826109e3565b8173ffffffffffffffffffffffffffffffffffffffff166323b872dd3330846040518463ffffffff1660e01b8152600401808473ffffffffffffffffffffffffffffffffffffffff1673ffffffffffffffffffffffffffffffffffffffff1681526020018373ffffffffffffffffffffffffffffffffffffffff1673ffffffffffffffffffffffffffffffffffffffff1681526020018281526020019350505050602060405180830381600087803b15801561054a57600080fd5b505af115801561055e573d6000803e3d6000fd5b505050506040513d602081101561057457600080fd5b8101908080519060200190929190505050505050565b600061059582610b29565b905060008160010154905060008260010181905550600073ffffffffffffffffffffffffffffffffffffffff168373ffffffffffffffffffffffffffffffffffffffff16141561064c576000809054906101000a900473ffffffffffffffffffffffffffffffffffffffff1673ffffffffffffffffffffffffffffffffffffffff166108fc829081150290604051600060405180830381858888f19350505050158015610646573d6000803e3d6000fd5b50610731565b8273ffffffffffffffffffffffffffffffffffffffff1663a9059cbb6000809054906101000a900473ffffffffffffffffffffffffffffffffffffffff16836040518363ffffffff1660e01b8152600401808373ffffffffffffffffffffffffffffffffffffffff1673ffffffffffffffffffffffffffffffffffffffff16815260200182815260200192505050602060405180830381600087803b1580156106f457600080fd5b505af1158015610708573d6000803e3d6000fd5b505050506040513d602081101561071e57600080fd5b8101908080519060200190929190505050505b505050565b60046020528060005260406000206000915090508060000154908060010154908060020160009054906101000a900460ff16905083565b600061077882610b29565b600101549050600073ffffffffffffffffffffffffffffffffffffffff168273ffffffffffffffffffffffffffffffffffffffff16141561083a57600160009054906101000a900473ffffffffffffffffffffffffffffffffffffffff1673ffffffffffffffffffffffffffffffffffffffff166108fc823073ffffffffffffffffffffffffffffffffffffffff1631039081150290604051600060405180830381858888f19350505050158015610834573d6000803e3d6000fd5b506109df565b60008273ffffffffffffffffffffffffffffffffffffffff166370a08231306040518263ffffffff1660e01b8152600401808273ffffffffffffffffffffffffffffffffffffffff1673ffffffffffffffffffffffffffffffffffffffff16815260200191505060206040518083038186803b1580156108b957600080fd5b505afa1580156108cd573d6000803e3d6000fd5b505050506040513d60208110156108e357600080fd5b810190808051906020019092919050505090508273ffffffffffffffffffffffffffffffffffffffff1663a9059cbb600160009054906101000a900473ffffffffffffffffffffffffffffffffffffffff168484036040518363ffffffff1660e01b8152600401808373ffffffffffffffffffffffffffffffffffffffff1673ffffffffffffffffffffffffffffffffffffffff16815260200182815260200192505050602060405180830381600087803b1580156109a157600080fd5b505af11580156109b5573d6000803e3d6000fd5b505050506040513d60208110156109cb57600080fd5b810190808051906020019092919050505050505b5050565b600081116109f057600080fd5b3373ffffffffffffffffffffffffffffffffffffffff166000809054906101000a900473ffffffffffffffffffffffffffffffffffffffff1673ffffffffffffffffffffffffffffffffffffffff1614610a4957600080fd5b610a5161043e565b15610a5b57600080fd5b6000600460008473ffffffffffffffffffffffffffffffffffffffff1673ffffffffffffffffffffffffffffffffffffffff1681526020019081526020016000209050600081600001541415610b125760038390806001815401808255809150509060018203906000526020600020016000909192909190916101000a81548173ffffffffffffffffffffffffffffffffffffffff021916908373ffffffffffffffffffffffffffffffffffffffff160217905550505b818160000160008282540192505081905550505050565b6000610b3361043e565b610b3c57600080fd5b6000600460008473ffffffffffffffffffffffffffffffffffffffff1673ffffffffffffffffffffffffffffffffffffffff16815260200190815260200160002090506000816000015411610b9057600080fd5b8060020160009054906101000a900460ff16610cfe5760008073ffffffffffffffffffffffffffffffffffffffff168473ffffffffffffffffffffffffffffffffffffffff161415610bfb573073ffffffffffffffffffffffffffffffffffffffff16319050610cb6565b8373ffffffffffffffffffffffffffffffffffffffff166370a08231306040518263ffffffff1660e01b8152600401808273ffffffffffffffffffffffffffffffffffffffff1673ffffffffffffffffffffffffffffffffffffffff16815260200191505060206040518083038186803b158015610c7857600080fd5b505afa158015610c8c573d6000803e3d6000fd5b505050506040513d6020811015610ca257600080fd5b810190808051906020019092919050505090505b60008260000154820390506000610cd06002830284610d07565b9050808303846001018190555060018460020160006101000a81548160ff0219169083151502179055505050505b80915050919050565b6000818310610d165781610d18565b825b90509291505056fea165627a7a723058202e045b7ed87c5418cd08c7189316f19ba977c0542cfd20905bed3217568c38180029",
  "source": "pragma solidity ^0.5.1;\n\nimport \"./IERC20.sol\";\n\ncontract DonationMatching {\n\n    struct Grant {\n        uint amount;\n        uint refundDue;\n        bool tallied;\n    }\n    \n    address payable public sponsor;\n    address payable public recipient;\n    uint public expiration;\n\n    address[] public tokens;\n\n    mapping (address => Grant) public grantsByToken;\n\n    constructor(address payable _recipient, uint _expiration) public {\n        require(_expiration > now);\n        require(_expiration < now + 365 days);\n        sponsor = msg.sender;\n        recipient = _recipient;\n        expiration = _expiration;\n    }\n    \n    // accept ETH transfers as donations\n    function() external payable {\n        require(msg.data.length == 0); // only allow plain transfers\n    }\n\n    function sponsorEther() external payable {\n        storeGrant(address(0x0), msg.value);\n    }\n\n    function sponsorTokens(address token, uint amount) external {\n        require(token != address(0x0));\n        storeGrant(token, amount);\n        IERC20(token).transferFrom(msg.sender, address(this), amount);\n    }\n\n    function storeGrant(address token, uint amount) private {\n        require(amount > 0);\n        require(sponsor == msg.sender);\n        require(!hasExpired());\n        Grant storage grant = grantsByToken[token];\n        if (grant.amount == 0) {\n            tokens.push(token);\n        }\n        grant.amount += amount;\n    }\n\n    function tally(address token) private returns (Grant storage) {\n        require(hasExpired());\n        Grant storage grant = grantsByToken[token];\n        require(grant.amount > 0);\n        if (!grant.tallied) {\n            uint total;\n            if (token == address(0x0)) {\n                total = address(this).balance;   \n            } else {\n                total = IERC20(token).balanceOf(address(this));\n            }\n            uint contrib = total - grant.amount;\n            uint donation = min(contrib * 2, total);\n            grant.refundDue = total - donation;   \n            grant.tallied = true;\n        }\n        return grant;\n    }\n\n    function disburseDonation(address token) external {\n        uint refundDue = tally(token).refundDue;\n        if (token == address(0x0)) {\n            recipient.transfer(address(this).balance - refundDue);\n        } else {\n            uint total = IERC20(token).balanceOf(address(this));\n            IERC20(token).transfer(recipient, total - refundDue);\n        }\n    }\n\n    function refundSponsor(address token) external {\n        Grant storage grant = tally(token);\n        uint refundDue = grant.refundDue;\n        grant.refundDue = 0;\n        if (token == address(0x0)) {\n            sponsor.transfer(refundDue);   \n        } else {\n            IERC20(token).transfer(sponsor, refundDue);\n        }\n    }\n    \n    function hasExpired() public view returns (bool) {\n        return now >= expiration;\n    }\n    \n    function min(uint a, uint b) private pure returns (uint) {\n        return a < b ? a : b;\n    }\n}\n",
  "sourcePath": "/Users/robi/src/DonationMatching/contracts/DonationMatching.sol",
  "compiler": {
    "name": "solc",
    "version": "0.5.8+commit.23d335f2.Emscripten.clang"
  },
  "schemaVersion": "3.0.11",
  "updatedAt": "2019-07-01T16:21:56.914Z",
  "devdoc": {
    "methods": {}
  },
  "userdoc": {
    "methods": {}
  }
}