{
  "contractName": "Fundraiser",
  "abi": [
    {
      "constant": true,
      "inputs": [],
      "name": "grant",
      "outputs": [
        {
          "name": "",
          "type": "address"
        }
      ],
      "payable": false,
      "stateMutability": "view",
      "type": "function"
    },
    {
      "constant": true,
      "inputs": [],
      "name": "expiration",
      "outputs": [
        {
          "name": "",
          "type": "uint256"
        }
      ],
      "payable": false,
      "stateMutability": "view",
      "type": "function"
    },
    {
      "constant": true,
      "inputs": [],
      "name": "recipient",
      "outputs": [
        {
          "name": "",
          "type": "address"
        }
      ],
      "payable": false,
      "stateMutability": "view",
      "type": "function"
    },
    {
      "constant": true,
      "inputs": [
        {
          "name": "token",
          "type": "address"
        }
      ],
      "name": "tokenBalance",
      "outputs": [
        {
          "name": "",
          "type": "uint256"
        }
      ],
      "payable": false,
      "stateMutability": "view",
      "type": "function"
    },
    {
      "inputs": [
        {
          "name": "_recipient",
          "type": "address"
        },
        {
          "name": "_sponsor",
          "type": "address"
        },
        {
          "name": "_expiration",
          "type": "uint256"
        }
      ],
      "payable": false,
      "stateMutability": "nonpayable",
      "type": "constructor"
    },
    {
      "payable": true,
      "stateMutability": "payable",
      "type": "fallback"
    },
    {
      "constant": true,
      "inputs": [],
      "name": "hasExpired",
      "outputs": [
        {
          "name": "",
          "type": "bool"
        }
      ],
      "payable": false,
      "stateMutability": "view",
      "type": "function"
    },
    {
      "constant": false,
      "inputs": [
        {
          "name": "token",
          "type": "address"
        }
      ],
      "name": "disburse",
      "outputs": [],
      "payable": false,
      "stateMutability": "nonpayable",
      "type": "function"
    }
  ],
  "bytecode": "0x608060405234801561001057600080fd5b50604051606080610a338339810180604052606081101561003057600080fd5b508051602082015160409092015190919042811161004d57600080fd5b426301e1338001811061005f57600080fd5b600080546001600160a01b0319166001600160a01b03851617905560018190556040513090839061008f906100ec565b6001600160a01b03928316815291166020820152604080519182900301906000f0801580156100c2573d6000803e3d6000fd5b50600280546001600160a01b0319166001600160a01b0392909216919091179055506100f9915050565b610577806104bc83390190565b6103b4806101086000396000f3fe6080604052600436106100555760003560e01c80631c8ce8901461006257806330c3eaa8146100955780634665096d146100c657806366d003ac146100ed57806390e64d1314610102578063eedc966a1461012b575b361561006057600080fd5b005b34801561006e57600080fd5b506100606004803603602081101561008557600080fd5b50356001600160a01b031661015e565b3480156100a157600080fd5b506100aa6101ea565b604080516001600160a01b039092168252519081900360200190f35b3480156100d257600080fd5b506100db6101f9565b60408051918252519081900360200190f35b3480156100f957600080fd5b506100aa6101ff565b34801561010e57600080fd5b5061011761020e565b604080519115158252519081900360200190f35b34801561013757600080fd5b506100db6004803603602081101561014e57600080fd5b50356001600160a01b0316610217565b60025460408051600160e11b636af911770281526001600160a01b0384811660048301529151919092169163d5f222ee91602480830192600092919082900301818387803b1580156101af57600080fd5b505af11580156101c3573d6000803e3d6000fd5b50506000546101e792506001600160a01b03169050826101e281610217565b6102ac565b50565b6002546001600160a01b031681565b60015481565b6000546001600160a01b031681565b60015442101590565b60006001600160a01b03821661022f575030316102a7565b60408051600160e01b6370a0823102815230600482015290516001600160a01b038416916370a08231916024808301926020929190829003018186803b15801561027857600080fd5b505afa15801561028c573d6000803e3d6000fd5b505050506040513d60208110156102a257600080fd5b505190505b919050565b6001600160a01b0382166102f6576040516001600160a01b0384169082156108fc029083906000818181858888f193505050501580156102f0573d6000803e3d6000fd5b50610383565b816001600160a01b031663a9059cbb84836040518363ffffffff1660e01b815260040180836001600160a01b03166001600160a01b0316815260200182815260200192505050602060405180830381600087803b15801561035657600080fd5b505af115801561036a573d6000803e3d6000fd5b505050506040513d602081101561038057600080fd5b50505b50505056fea165627a7a723058208a0bef21d5617237f585d31f52e86a977c731f75d7e178c8363986fad551e8050029608060405234801561001057600080fd5b506040516040806105778339810180604052604081101561003057600080fd5b508051602090910151600080546001600160a01b039384166001600160a01b03199182161790915560018054939092169216919091179055610500806100776000396000f3fe6080604052600436106100555760003560e01c8063431255ec1461006257806377c93662146100a957806389585d10146100da578063d5f222ee146100ef578063eedc966a14610122578063fa89401a14610167575b361561006057600080fd5b005b34801561006e57600080fd5b506100956004803603602081101561008557600080fd5b50356001600160a01b031661019a565b604080519115158252519081900360200190f35b3480156100b557600080fd5b506100be6101af565b604080516001600160a01b039092168252519081900360200190f35b3480156100e657600080fd5b506100be6101be565b3480156100fb57600080fd5b506100606004803603602081101561011257600080fd5b50356001600160a01b03166101cd565b34801561012e57600080fd5b506101556004803603602081101561014557600080fd5b50356001600160a01b0316610341565b60408051918252519081900360200190f35b34801561017357600080fd5b506100606004803603602081101561018a57600080fd5b50356001600160a01b03166103d6565b60026020526000908152604090205460ff1681565b6001546001600160a01b031681565b6000546001600160a01b031681565b6000809054906101000a90046001600160a01b03166001600160a01b03166390e64d136040518163ffffffff1660e01b815260040160206040518083038186803b15801561021a57600080fd5b505afa15801561022e573d6000803e3d6000fd5b505050506040513d602081101561024457600080fd5b505161024f57600080fd5b6001600160a01b03811660009081526002602052604090205460ff1661033e576000805460408051600160e11b63776e4b350281526001600160a01b0385811660048301529151919092169163eedc966a916024808301926020929190829003018186803b1580156102c057600080fd5b505afa1580156102d4573d6000803e3d6000fd5b505050506040513d60208110156102ea57600080fd5b5051905060006102f983610341565b6001600160a01b038085166000908152600260205260408120805460ff191660011790555491925061033b9116848385116103345784610336565b835b6103f9565b50505b50565b60006001600160a01b038216610359575030316103d1565b60408051600160e01b6370a0823102815230600482015290516001600160a01b038416916370a08231916024808301926020929190829003018186803b1580156103a257600080fd5b505afa1580156103b6573d6000803e3d6000fd5b505050506040513d60208110156103cc57600080fd5b505190505b919050565b6103df816101cd565b60015461033e906001600160a01b03168261033681610341565b6001600160a01b038216610443576040516001600160a01b0384169082156108fc029083906000818181858888f1935050505015801561043d573d6000803e3d6000fd5b5061033b565b816001600160a01b031663a9059cbb84836040518363ffffffff1660e01b815260040180836001600160a01b03166001600160a01b0316815260200182815260200192505050602060405180830381600087803b1580156104a357600080fd5b505af11580156104b7573d6000803e3d6000fd5b505050506040513d60208110156104cd57600080fd5b505050505056fea165627a7a723058207eabbe899409dbdf59e166687f57474d17981effb71e521d5c62bdd3ba17391a0029",
  "source": "pragma solidity ^0.5.1;\n\nimport \"openzeppelin-solidity/contracts/token/ERC20/IERC20.sol\";\n\ncontract Fundable {\n    \n    function() external payable {\n        require(msg.data.length == 0); // only allow plain transfers\n    }\n    \n    function tokenBalance(address token) public view returns (uint) {\n        if (token == address(0x0)) {\n            return address(this).balance;\n        } else {\n            return IERC20(token).balanceOf(address(this));\n        }\n    }\n   \n    function send(address payable to, address token, uint amount) internal {\n        if (token == address(0x0)) {\n            to.transfer(amount);\n        } else {\n            IERC20(token).transfer(to, amount);\n        }\n    }\n}\n\ncontract Fundraiser is Fundable {\n    address payable public recipient;\n    uint public expiration;\n    Grant public grant;\n\n    constructor(address payable _recipient, address payable _sponsor, uint _expiration) public {\n        require(_expiration > now);\n        require(_expiration < now + 365 days);\n        recipient = _recipient;\n        expiration = _expiration;\n        grant = new Grant(this, _sponsor);\n    }\n\n    function hasExpired() public view returns (bool) {\n        return now >= expiration;\n    }\n\n    function disburse(address token) public {\n        grant.tally(token);\n        send(recipient, token, tokenBalance(token));\n    }\n}\n\ncontract Grant is Fundable {\n    Fundraiser public fundraiser;\n    address payable public sponsor; \n    mapping (address => bool) public tallied;\n    \n    constructor(Fundraiser _fundraiser, address payable _sponsor) public {\n        fundraiser = _fundraiser;\n        sponsor = _sponsor;\n    }\n    \n    function refund(address token) public {\n        tally(token);\n        send(sponsor, token, tokenBalance(token));\n    }\n\n    function tally(address token) public {\n        require(fundraiser.hasExpired());\n        if (!tallied[token]) {\n            uint raised = fundraiser.tokenBalance(token);\n            uint grant = tokenBalance(token);\n            tallied[token] = true;\n            send(address(fundraiser), token, raised > grant ? grant : raised);\n        }\n    }\n}\n",
  "sourcePath": "/Users/phraktle/dev/DonationMatching/contracts/Fundraiser.sol",
  "compiler": {
    "name": "solc",
    "version": "0.5.8+commit.23d335f2.Emscripten.clang"
  },
  "schemaVersion": "3.0.11",
  "updatedAt": "2019-07-02T13:16:38.157Z",
  "devdoc": {
    "methods": {}
  },
  "userdoc": {
    "methods": {}
  }
}