{
  "contractName": "Grant",
  "abi": [
    {
      "constant": true,
      "inputs": [
        {
          "name": "",
          "type": "address"
        }
      ],
      "name": "tallied",
      "outputs": [
        {
          "name": "",
          "type": "bool"
        }
      ],
      "payable": false,
      "stateMutability": "view",
      "type": "function"
    },
    {
      "constant": true,
      "inputs": [],
      "name": "sponsor",
      "outputs": [
        {
          "name": "",
          "type": "address"
        }
      ],
      "payable": false,
      "stateMutability": "view",
      "type": "function"
    },
    {
      "constant": true,
      "inputs": [],
      "name": "fundraiser",
      "outputs": [
        {
          "name": "",
          "type": "address"
        }
      ],
      "payable": false,
      "stateMutability": "view",
      "type": "function"
    },
    {
      "constant": true,
      "inputs": [
        {
          "name": "token",
          "type": "address"
        }
      ],
      "name": "tokenBalance",
      "outputs": [
        {
          "name": "",
          "type": "uint256"
        }
      ],
      "payable": false,
      "stateMutability": "view",
      "type": "function"
    },
    {
      "inputs": [
        {
          "name": "_fundraiser",
          "type": "address"
        },
        {
          "name": "_sponsor",
          "type": "address"
        }
      ],
      "payable": false,
      "stateMutability": "nonpayable",
      "type": "constructor"
    },
    {
      "payable": true,
      "stateMutability": "payable",
      "type": "fallback"
    },
    {
      "constant": false,
      "inputs": [
        {
          "name": "token",
          "type": "address"
        }
      ],
      "name": "refund",
      "outputs": [],
      "payable": false,
      "stateMutability": "nonpayable",
      "type": "function"
    },
    {
      "constant": false,
      "inputs": [
        {
          "name": "token",
          "type": "address"
        }
      ],
      "name": "tally",
      "outputs": [],
      "payable": false,
      "stateMutability": "nonpayable",
      "type": "function"
    }
  ],
  "bytecode": "0x608060405234801561001057600080fd5b506040516040806109178339810180604052604081101561003057600080fd5b810190808051906020019092919080519060200190929190505050816000806101000a81548173ffffffffffffffffffffffffffffffffffffffff021916908373ffffffffffffffffffffffffffffffffffffffff16021790555080600160006101000a81548173ffffffffffffffffffffffffffffffffffffffff021916908373ffffffffffffffffffffffffffffffffffffffff160217905550505061083a806100dd6000396000f3fe6080604052600436106100555760003560e01c8063431255ec1461006757806377c93662146100d057806389585d1014610127578063d5f222ee1461017e578063eedc966a146101cf578063fa89401a14610234575b6000803690501461006557600080fd5b005b34801561007357600080fd5b506100b66004803603602081101561008a57600080fd5b81019080803573ffffffffffffffffffffffffffffffffffffffff169060200190929190505050610285565b604051808215151515815260200191505060405180910390f35b3480156100dc57600080fd5b506100e56102a5565b604051808273ffffffffffffffffffffffffffffffffffffffff1673ffffffffffffffffffffffffffffffffffffffff16815260200191505060405180910390f35b34801561013357600080fd5b5061013c6102cb565b604051808273ffffffffffffffffffffffffffffffffffffffff1673ffffffffffffffffffffffffffffffffffffffff16815260200191505060405180910390f35b34801561018a57600080fd5b506101cd600480360360208110156101a157600080fd5b81019080803573ffffffffffffffffffffffffffffffffffffffff1690602001909291905050506102f0565b005b3480156101db57600080fd5b5061021e600480360360208110156101f257600080fd5b81019080803573ffffffffffffffffffffffffffffffffffffffff16906020019092919050505061056e565b6040518082815260200191505060405180910390f35b34801561024057600080fd5b506102836004803603602081101561025757600080fd5b81019080803573ffffffffffffffffffffffffffffffffffffffff169060200190929190505050610683565b005b60026020528060005260406000206000915054906101000a900460ff1681565b600160009054906101000a900473ffffffffffffffffffffffffffffffffffffffff1681565b6000809054906101000a900473ffffffffffffffffffffffffffffffffffffffff1681565b6000809054906101000a900473ffffffffffffffffffffffffffffffffffffffff1673ffffffffffffffffffffffffffffffffffffffff166390e64d136040518163ffffffff1660e01b815260040160206040518083038186803b15801561035757600080fd5b505afa15801561036b573d6000803e3d6000fd5b505050506040513d602081101561038157600080fd5b810190808051906020019092919050505061039b57600080fd5b600260008273ffffffffffffffffffffffffffffffffffffffff1673ffffffffffffffffffffffffffffffffffffffff16815260200190815260200160002060009054906101000a900460ff1661056b5760008060009054906101000a900473ffffffffffffffffffffffffffffffffffffffff1673ffffffffffffffffffffffffffffffffffffffff1663eedc966a836040518263ffffffff1660e01b8152600401808273ffffffffffffffffffffffffffffffffffffffff1673ffffffffffffffffffffffffffffffffffffffff16815260200191505060206040518083038186803b15801561048c57600080fd5b505afa1580156104a0573d6000803e3d6000fd5b505050506040513d60208110156104b657600080fd5b8101908080519060200190929190505050905060006104d48361056e565b90506001600260008573ffffffffffffffffffffffffffffffffffffffff1673ffffffffffffffffffffffffffffffffffffffff16815260200190815260200160002060006101000a81548160ff0219169083151502179055506105686000809054906101000a900473ffffffffffffffffffffffffffffffffffffffff16848385116105615784610563565b835b6106c4565b50505b50565b60008073ffffffffffffffffffffffffffffffffffffffff168273ffffffffffffffffffffffffffffffffffffffff1614156105c3573073ffffffffffffffffffffffffffffffffffffffff1631905061067e565b8173ffffffffffffffffffffffffffffffffffffffff166370a08231306040518263ffffffff1660e01b8152600401808273ffffffffffffffffffffffffffffffffffffffff1673ffffffffffffffffffffffffffffffffffffffff16815260200191505060206040518083038186803b15801561064057600080fd5b505afa158015610654573d6000803e3d6000fd5b505050506040513d602081101561066a57600080fd5b810190808051906020019092919050505090505b919050565b61068c816102f0565b6106c1600160009054906101000a900473ffffffffffffffffffffffffffffffffffffffff16826106bc8461056e565b6106c4565b50565b600073ffffffffffffffffffffffffffffffffffffffff168273ffffffffffffffffffffffffffffffffffffffff161415610745578273ffffffffffffffffffffffffffffffffffffffff166108fc829081150290604051600060405180830381858888f1935050505015801561073f573d6000803e3d6000fd5b50610809565b8173ffffffffffffffffffffffffffffffffffffffff1663a9059cbb84836040518363ffffffff1660e01b8152600401808373ffffffffffffffffffffffffffffffffffffffff1673ffffffffffffffffffffffffffffffffffffffff16815260200182815260200192505050602060405180830381600087803b1580156107cc57600080fd5b505af11580156107e0573d6000803e3d6000fd5b505050506040513d60208110156107f657600080fd5b8101908080519060200190929190505050505b50505056fea165627a7a723058208981a06931d7c150eb0f76cc5179c4a818b800e15dcf040e403ed97e45f590590029",
  "source": "pragma solidity ^0.5.1;\n\nimport \"openzeppelin-solidity/contracts/token/ERC20/IERC20.sol\";\n\ncontract Fundable {\n    \n    function() external payable {\n        require(msg.data.length == 0); // only allow plain transfers\n    }\n    \n    function tokenBalance(address token) public view returns (uint) {\n        if (token == address(0x0)) {\n            return address(this).balance;\n        } else {\n            return IERC20(token).balanceOf(address(this));\n        }\n    }\n   \n    function send(address payable to, address token, uint amount) internal {\n        if (token == address(0x0)) {\n            to.transfer(amount);\n        } else {\n            IERC20(token).transfer(to, amount);\n        }\n    }\n}\n\ncontract Fundraiser is Fundable {\n    address payable public recipient;\n    uint public expiration;\n    Grant public grant;\n\n    constructor(address payable _recipient, address payable _sponsor, uint _expiration) public {\n        require(_expiration > now);\n        require(_expiration < now + 365 days);\n        recipient = _recipient;\n        expiration = _expiration;\n        grant = new Grant(this, _sponsor);\n    }\n\n    function hasExpired() public view returns (bool) {\n        return now >= expiration;\n    }\n\n    function disburse(address token) public {\n        grant.tally(token);\n        send(recipient, token, tokenBalance(token));\n    }\n}\n\ncontract Grant is Fundable {\n    Fundraiser public fundraiser;\n    address payable public sponsor; \n    mapping (address => bool) public tallied;\n    \n    constructor(Fundraiser _fundraiser, address payable _sponsor) public {\n        fundraiser = _fundraiser;\n        sponsor = _sponsor;\n    }\n    \n    function refund(address token) public {\n        tally(token);\n        send(sponsor, token, tokenBalance(token));\n    }\n\n    function tally(address token) public {\n        require(fundraiser.hasExpired());\n        if (!tallied[token]) {\n            uint raised = fundraiser.tokenBalance(token);\n            uint grant = tokenBalance(token);\n            tallied[token] = true;\n            send(address(fundraiser), token, raised > grant ? grant : raised);\n        }\n    }\n}\n",
  "sourcePath": "/Users/phraktle/dev/DonationMatching/contracts/Fundraiser.sol",
  "compiler": {
    "name": "solc",
    "version": "0.5.8+commit.23d335f2.Emscripten.clang"
  },
  "schemaVersion": "3.0.11",
  "updatedAt": "2019-07-02T11:53:37.946Z",
  "devdoc": {
    "methods": {}
  },
  "userdoc": {
    "methods": {}
  }
}